:020000040000FA
:100000000C9471000C9499000C9499000C94990034
:100010000C9499000C9499000C9499000C949900FC
:100020000C9499000C9499000C9499000C949900EC
:100030000C9499000C9499000C9499000C949900DC
:100040000C94FA0C0C9499000C94C80C0C94A20C0F
:100050000C9499000C9499000C9499000C949900BC
:100060000C9499000C9499000000000024002700D3
:100070002A0000000000250028002B002622731211
:100080000350F54A2B01222222220322222222039C
:1000900022222222030000000005000000002300AD
:1000A00026002900040404040404040402020202D9
:1000B000020203030303030301020408102040802B
:1000C00001020408102001020408102000000008AA
:1000D000000201000003040700000000000000000F
:1000E000440D11241FBECFEFD8E0DEBFCDBF11E01D
:1000F000A0E0B1E0ECE3F8E202C005900D92AE356D
:10010000B107D9F722E0AEE5B1E001C01D92AD35EF
:10011000B207E1F710E0C1E7D0E004C02197FE018B
:100120000E941614C037D107C9F70E948D0D0C9498
:100130001C140C9400002F923F924F925F926F928A
:100140007F928F929F92AF92BF92CF92DF92EF9267
:10015000FF920F931F93CF93DF9300D000D000D076
:100160001F92CDB7DEB71092360210923502209161
:100170003102309132023D832C83C0903302D09003
:10018000340287E292E09B838A830EEF1FEF412CBB
:10019000512C612C82E4782E812C912C5401312C2D
:1001A000212CF12CE12C1982EA81FB8121913191E2
:1001B000FB83EA838C819D81281B390B3F832E832F
:1001C00037FF02C01F821E82EE81FF812E163F067E
:1001D0000CF41F012E813F81B901330F880B990B5D
:1001E0000E94CD129B01AC01C501B4010E94B21165
:1001F0004B015C01398131117FC0EC14FD040CF01E
:1002000046C08E819F81C816D9060CF040C0B60149
:100210006E197F09072E000C880B990B0E94CD12D6
:1002200020E030E040E851E40E9482132B013C01C1
:100230006E817F816E197F09072E000C880B990B48
:100240000E94CD129B01AC01C301B2010E94231296
:100250002B013C01B801012E000C880B990B0E9468
:10026000CD1220E030E040E851E40E94821320E00B
:1002700030E040E051E40E94B1119B01AC01C301A8
:10028000B2010E94B2112B013C0191E099830F5FF2
:100290001F4FEE80FF800330110509F085CF3092AB
:1002A0003602209235028092230290922402A0927C
:1002B0002502B092260240921B0250921C026092CC
:1002C0001D0270921E0227960FB6F894DEBF0FBE75
:1002D000CDBFDF91CF911F910F91FF90EF90DF90F5
:1002E000CF90BF90AF909F908F907F906F905F90D6
:1002F0004F903F902F900895E1E0E983C8CF2F926F
:100300003F924F925F926F927F928F929F92AF92A5
:10031000BF92CF92DF92EF92FF920F931F93CF93F2
:10032000DF9300D000D000D01F92CDB7DEB710927F
:1003300036021092350220913102309132023D8313
:100340002C83809033029090340281E392E09B836F
:100350008A830EEF1FEFC12CD12CE12C82ECF82EFA
:10036000412C512C3201312C212CB12CA12C198281
:10037000EA81FB8132912291FB83EA838C819D810A
:10038000281B390B3F832E8337FF02C01F821E823A
:10039000EE81FF812E163F060CF41F012E813F8156
:1003A000B901330F880B990B0E94CD129B01AC0150
:1003B000C301B2010E94B2112B013C0139813111FC
:1003C00083C0A814B9040CF04AC08E819F8188169E
:1003D00099060CF044C0B4016A197B09072E000C81
:1003E000880B990B0E94CD1220E030E040E851E4E8
:1003F0000E9482136B017C016E817F816A197B09E7
:10040000072E000C880B990B0E94CD129B01AC01AA
:10041000C701B6010E9423126B017C01B801012EB5
:10042000000C880B990B0E94CD1220E030E040E8D0
:1004300051E40E94821320E030E040E051E40E9449
:10044000B1119B01AC01C701B6010E94B2116B0151
:100450007C01F7FAF094F7F8F09491E099830F5F3C
:100460001F4FAE80BF800330110509F081CF30925D
:10047000360220923502409223025092240260926A
:10048000250270922602C0921F02D0922002E092B2
:100490002102F092220227960FB6F894DEBF0FBE1B
:1004A000CDBFDF91CF911F910F91FF90EF90DF9023
:1004B000CF90BF90AF909F908F907F906F905F9004
:1004C0004F903F902F900895E1E0E983C8CFCF93FC
:1004D00010923B0210923C0210923D0210923E029A
:1004E00060913502709136026115710521F4109208
:1004F0003802CF910895C0913802C0933902072E77
:10050000000C880B990B0E94CD129B01AC016091ED
:1005100023027091240280912502909126020E946C
:10052000231260933B0270933C0280933D029093B0
:100530003E0220E030E040E250E40E947D131816B5
:1005400084F491E09C0F9093380280913A02C8178E
:1005500080F6981770F2809137028F5F8093370290
:10056000C8CFCC2331F2C150C0933802C2CFCF9351
:10057000DF9390914F029F3FE1F4982F9F7D975416
:100580009431A0F410924F028093500210925102C5
:10059000109252021092530210925402109255027D
:1005A000109256021092570210925802DF91CF918A
:1005B000089520ED280F2A3060F02FEB280F263009
:1005C00040F0209150022756243108F440C08FEFAC
:1005D00009C0E92F092E000CFF0BE15BFD4F828360
:1005E00081E0890F80934F0280914F028830F1F6AD
:1005F000E1E5F2E040E050E0BA0184E0440F551F2D
:10060000661F771F8A95D1F7919180ED890F8A3007
:1006100038F08FEB890F863008F03FC089EC890FE6
:10062000480F511D611D711D82E0E935F80729F75A
:10063000E0915902F0915A02309729F02FE432E00C
:100640008091500209958FEF80934F02AFCF8D308C
:1006500029F08A3019F08B3209F0B9CF20E0892FC8
:10066000990F990BEC01219767E070E0422F50E061
:100670004817590784F4FE01E41BF50BE15BFD4FBD
:100680003281DB01A41BB50BA15BBD4F12963C93DD
:1006900012822F5FEBCF88E0A5CF80E0C1CF8CBD69
:1006A0009DBD0895AF92BF92CF92DF92EF92FF92DD
:1006B0000F931F93CF93DF936C017B018B01040F8A
:1006C000151FEB015E01AE18BF08C017D10759F026
:1006D0006991D601ED91FC910190F081E02DC60168
:1006E0000995892B79F7C501DF91CF911F910F9162
:1006F000FF90EF90DF90CF90BF90AF900895FC01F6
:10070000538D448D252F30E0842F90E0821B930B76
:10071000541710F0CF96089501970895FC01918D1C
:10072000828D981761F0A28DAE0FBF2FB11D5D961F
:100730008C91928D9F5F9F73928F90E008958FEFC1
:100740009FEF0895FC01918D828D981731F0828D75
:10075000E80FF11D858D90E008958FEF9FEF0895CC
:10076000FC01918D228D892F90E0805C9F4F821B30
:1007700091098F73992708958EE791E00E94B00345
:1007800021E0892B09F420E0822F089580E090E099
:10079000892B29F00E94BC0381110C94000008955C
:1007A000FC01A48DA80FB92FB11DA35ABF4F2C91E6
:1007B000848D90E001968F739927848FA689B789DD
:1007C0002C93A089B1898C91837080648C93938DD4
:1007D000848D981306C00288F389E02D80818F7D77
:1007E00080830895EF92FF920F931F93CF93DF932F
:1007F000EC0181E0888F9B8D8C8D98131AC0E8895D
:10080000F989808185FF15C09FB7F894EE89FF892B
:100810006083E889F98980818370806480839FBFC9
:1008200081E090E0DF91CF911F910F91FF90EF90C9
:100830000895F62E0B8D10E00F5F1F4F0F731127D9
:10084000E02E8C8D8E110CC00FB607FCFACFE88914
:10085000F989808185FFF5CFCE010E94D003F1CFC9
:10086000EB8DEC0FFD2FF11DE35AFF4FF0829FB788
:10087000F8940B8FEA89FB8980818062CFCF682F43
:100880008EE791E00C94F203CF93DF93EC01888D17
:100890008823B9F0AA89BB89E889F9898C9185FDFB
:1008A00003C0808186FD0DC00FB607FCF7CF8C9189
:1008B00085FFF2CF808185FFEDCFCE010E94D0036E
:1008C000E9CFDF91CF910895833081F028F4813012
:1008D00099F08230A9F008958730A9F08830C9F0E6
:1008E0008430B1F4809180008F7D03C080918000BE
:1008F0008F7780938000089584B58F7784BD0895A5
:1009000084B58F7DFBCF8091B0008F778093B0004E
:1009100008958091B0008F7DF9CF1F93CF93DF931F
:10092000282F30E0F901E453FF4F8491F901E85496
:10093000FF4FD491F901EC55FF4FC491CC23A9F09E
:10094000162F81110E946404EC2FF0E0EE0FFF1FC0
:10095000EE58FF4FA591B4918FB7F894EC91111117
:1009600008C0D095DE23DC938FBFDF91CF911F911C
:100970000895DE2BF8CFCF93DF9390E0FC01E8548D
:10098000FF4F24918C559F4FFC0184918823D1F017
:1009900090E0880F991FFC01E859FF4FA591B49191
:1009A000FC01EE58FF4FC591D491623071F49FB7AE
:1009B000F8943C91822F809583238C93E8812E2B91
:1009C00028839FBFDF91CF9108958FB7F894EC9162
:1009D0002E2B2C938FBFF6CF1F93CF93DF93182F1F
:1009E000EB0161E00E94BB04209739F460E0812FA5
:1009F000DF91CF911F910C948D04CF3FD10511F45D
:100A000061E0F5CFE12FF0E0E453FF4FE491E330F4
:100A100031F140F4E130B1F0E230E1F0C038D1051D
:100A20007CF7E4CFE73029F1E83059F1E430B1F751
:100A300080918000806280938000D0938B00C0936F
:100A40008A0004C084B5806884BDC7BDDF91CF91A2
:100A50001F91089584B5806284BDC8BDF7CF809191
:100A60008000806880938000D0938900C0938800C4
:100A7000EDCF8091B00080688093B000C093B30048
:100A8000E5CF8091B00080628093B000C093B40045
:100A9000DDCF3FB7F8948091630190916401A091FC
:100AA0006501B091660126B5A89B05C02F3F19F0DE
:100AB0000196A11DB11D3FBFBA2FA92F982F8827DE
:100AC000BC01CD01620F711D811D911D42E0660FB9
:100AD000771F881F991F4A95D1F70895BC016E5F53
:100AE0007F4FDC01ED91FC910190F081E02D40E021
:100AF000099591E0811190E0892F089508958EBDA8
:100B000000000DB407FEFDCF8EB50895DF92EF9281
:100B1000FF920F931F93CF93DF937C01062FD42E68
:100B2000152F83E590E00E944F0360E0F701868572
:100B30000E948D0482E10E947F05CD2DD12F0C0FE4
:100B40001D2F111DC017D10721F089910E947F052B
:100B5000F9CF61E0F7018685DF91CF911F910F9169
:100B6000FF90EF90DF900C948D041F93CF93DF9351
:100B7000EC01162F83E590E00E944F0360E08E8524
:100B80000E948D04812F80680E947F0580E00E9472
:100B90007F05182F61E08E850E948D04812FDF91E3
:100BA000CF911F9108950F931F93CF93DF93EC0183
:100BB000062F142F83E590E00E944F0360E08E859E
:100BC0000E948D04802F0E947F05812F0E947F0547
:100BD00061E08E85DF91CF911F910F910C948D0470
:100BE000CF92DF92EF92FF920F931F93CF93DF93F9
:100BF000EC016B01142F790140E062E00E94D30503
:100C000044E06AE0CE010E94D30540E864E1CE01F1
:100C10000E94D305A601612FCE010E94860543E004
:100C200062E0CE010E94D30508E813E16AE0CE013C
:100C30000E94B50582FF1BC040E062E0CE010E9429
:100C4000D30564E4CE010E94B505F701808362E418
:100C5000CE010E94B505F701818380E0DF91CF913D
:100C60001F910F91FF90EF90DF90CF90089501506A
:100C70001109E1F683E0F2CF3F924F925F926F92BB
:100C80007F928F929F92AF92BF92CF92DF92EF921C
:100C9000FF920F931F93CF93DF9300D0CDB7DEB7B2
:100CA0004C012B01D42E390180E0E114F10411F044
:100CB000F7018081BC2CB29490EFB922B80E40E0CD
:100CC00062E0C4010E94D3054FE768E0C4010E94BE
:100CD000D30540E864E1C4010E94D305A2016D2D53
:100CE000C4010E9486054B2D6AE1C4010E94D30510
:100CF0004CE062E0C4010E94D3056AE1C4010E9495
:100D0000B505482F40686AE1C4010E94D30520ED73
:100D1000422E27E0522E68E0C4010E94B505982FAC
:100D2000907309F0B6C080FD04C0F1E04F1A51087D
:100D300091F783E094C06114710409F46DC001154A
:100D4000110509F469C064E1C4010E94B505B82E1B
:100D5000F80180818B1508F496C0B082BB20E1F1C8
:100D600083E590E00E944F0360E0F40186850E94D5
:100D70008D04BA9482E90E947F05CC20B1F08FEFF8
:100D800090E09C0102C0220F331FCA94E2F7690170
:100D900082E90E947F059C2D9095F301208192238A
:100DA0008C21982B9083CC24C39423014C0C511C90
:100DB000CB1440F482E90E947F05F20181932F0158
:100DC000C394F6CF80E00E947F05F201808361E04A
:100DD000F40186850E948D0468E1C4010E94B50576
:100DE0008770E114F10411F0F701808333FC4DC0EA
:100DF0006114710409F44BC00115110509F447C0D1
:100E0000AA2009F444C0F8014081413039F484300B
:100E100009F049C08FEF23C080E0E8CF423008F4EA
:100E200042C0811140C042509E012F5F3F4FB3012D
:100E3000C4010E94F005811112C0F8019081690E71
:100E4000711CF30132972081998129132CC0F1E0A4
:100E50006F1A7108F30120819A81291324C00F9021
:100E60000F90DF91CF911F910F91FF90EF90DF9046
:100E7000CF90BF90AF909F908F907F906F905F903A
:100E80004F903F90089584E0EACF82E0E8CF80E081
:100E9000E6CF6CE0C4010E94B505382E837109F4D9
:100EA0004ACF81E0DCCF87E0DACF0F931F93CF9357
:100EB000DF938C01D62FC42F0E94B505C0954C2F0F
:100EC00048236D2FC801DF91CF911F910F910C9492
:100ED000D3052F923F924F925F926F927F928F92A3
:100EE0009F92AF92BF92CF92DF92EF92FF920F93B9
:100EF0001F93CF93DF93CDB7DEB72D970FB6F8943E
:100F0000DEBF0FBECDBF16E0413508F045C1342E1F
:100F10004B013C0140E86CE10E94550783E989835D
:100F2000332029F081E0F4019081953008F480E0CD
:100F300022242394B12C9B2D990F990F990FD32C18
:100F4000D91AD7FCD12C32E0882319F098E89B837A
:100F500033E021E09D2D977009F420E09D2D9595BB
:100F600095959595290FC9F094E0811193E0291783
:100F700008F4922FEB2DF0E03196E80DF91D232FA8
:100F80004191A1E0B0E0AC0FBD1FA20FB11D4C9389
:100F90002F5F422F431B491798F3882311F0F8E085
:100FA000DF0E8FE18D150CF082C090E79A838B8164
:100FB0009C8189279D8189279E8189278F839E0116
:100FC000285F3F4F47E0BE016F5F7F4FC3010E9424
:100FD000F005182F8111E0C01A86E3E0EB87DC866C
:100FE000CE0107962C0199E09D87CA844C2D42952D
:100FF000407F4C0D6AE1C3010E94D305A12CCE01B4
:101000000A967C018E01055F1F4F92014D85BE013E
:101010006F5F7F4FC3010E943C06182F823009F09A
:1010200065C06CE1C3010E94B50585FDB5C08F7137
:1010300009F480E2282F30E04D2DDD0C550B4217CE
:1010400053070CF09DC0D82EE82FE595E595E59562
:10105000EF5F982F977081E009F480E0E80F81E05E
:1010600090E08C0F9D1F8E0F911DFC0121503109C6
:101070002770332781E090E002C0880F991F2A95DE
:10108000E2F79C018081822B80838BCF85E9898365
:10109000332031F081E0F4019081983008F04BCF9B
:1010A00080E049CF87E9898326E0B22EF9CF9D2DD4
:1010B00097709A878D2D8595859585958E5F282FBC
:1010C0002295207F290F2A8321E0911101C020E081
:1010D000280F2D8744244394512C4C0E5D1E480E3E
:1010E000511CE9E0E81BEB87DC867FCF811154C0FF
:1010F00080E2D82E9C8590320CF457CF8B818838B3
:1011000009F040C083E093E0EB2DF0E03196E80D6C
:10111000F91D980FA1E0B0E0AC0FBD1FA80FB11DE5
:101120002C9121938F5F8913F5CFBB84E3E0BE122E
:101130004DC08A8581114AC09E012D5F3F4F41E01D
:10114000B201C3010E94F005182F811125C09B81B7
:10115000F201818198133CC09C818281981338C030
:10116000808182FF12C02394F2E02F1609F48ECF03
:1011700083E0281609F496CF91E0291609F4CECE23
:1011800015E00AC082E094E0BFCFF4018387822D8E
:10119000880F820D8F5F8083812F2D960FB6F89474
:1011A000DEBF0FBECDBFDF91CF911F910F91FF909A
:1011B000EF90DF90CF90BF90AF909F908F907F90F7
:1011C0006F905F904F903F902F90089511E0E4CF83
:1011D00017E0E2CF4F925F926F927F928F929F9231
:1011E000AF92CF92EF92FF920F931F93CF93DF9323
:1011F00000D0CDB7DEB76A83F9016081623098F123
:1012000049012A013C0140E86CE10E94550787E052
:101210008983A12CC12CCE0101967C01840192010D
:1012200041E0BE016E5F7F4FC3010E943C06811109
:1012300009C0F40180818230C1F481E0998191116B
:1012400001C080E00F900F90DF91CF911F910F911F
:10125000FF90EF90CF90AF909F908F907F906F9086
:101260005F904F90089584E0EDCF81E0EBCF0F9336
:101270001F93CF93DF9300D01F92CDB7DEB78C01C1
:1012800082E08B8340E064E2C8010E94D30540E025
:1012900066E2C8010E94D30546E268E4C8010E94E4
:1012A000D3059E012D5F3F4FAE014F5F5F4F66E25A
:1012B000C8010E94EA08982F9D7F81E009F080E034
:1012C0000F900F900F90DF91CF911F910F91089584
:1012D00010926B0110926C0110926D0110926E01D0
:1012E00080937301089580917301813049F4809156
:1012F0006901882309F44AC082E00E94680946C057
:10130000823079F480916B0190916C01A0916D0114
:10131000B0916E0181399140A105B105B8F183E02A
:10132000ECCF833079F480916B0190916C01A091A6
:101330006D01B0916E01813B9440A105B10530F182
:1013400084E0DBCF843089F580916B0190916C0152
:10135000A0916D01B0916E01813B9440A105B10552
:10136000A8F020E030E84BEB54E460912302709148
:10137000240280912502909126020E947D13181666
:101380002CF485E00E946809109237028091730165
:10139000811148C010927C01109274011092750165
:1013A00010927601109277017FC0853031F48091E0
:1013B0003702853058F386E0A0CF8630F9F480916B
:1013C0006B0190916C01A0916D01B0916E01813B18
:1013D0009440A105B105D0F220E030E84BEB54E495
:1013E000609123027091240280912502909126023F
:1013F0000E947D13181654F687E07FCF873031F6B0
:1014000080916B0190916C01A0916D01B0916E0182
:10141000813D9740A105B10508F4B8CF109237027D
:1014200088E06BCF813029F510927C0180E090E05C
:10143000A0E7B2E48093740190937501A0937601C4
:10144000B093770120E030E040E050EC60911B0267
:1014500070911C0280911D0290911E020E948213C5
:10146000609378017093790180937A0190937B0166
:101470000895823041F481E080937C0180E090E027
:10148000A0E2B2E4D7CF8330C1F481E080937C0145
:1014900080E090E0A0E7B2EC809374019093750136
:1014A000A0937601B09377011092780110927901A0
:1014B00010927A0110927B0108958430C1F481E08A
:1014C00080937C0110927401109275011092760144
:1014D0001092770180E090E0A8E4B2E48093780174
:1014E00090937901A0937A01B0937B0108958530A0
:1014F000E1F481E080937C0180E090E0A0E7B2E439
:101500008093740190937501A0937601B093770155
:1015100020E030E040E050EC60911F02709120022A
:10152000809121029091220299CF863011F581E0BD
:1015300080937C0180916B0190916C01A0916D0171
:10154000B0916E0180399140A105B10528F480E089
:1015500090E0A0E2B2E4A0CF109274011092750165
:10156000109276011092770180E090E0A0E2B2EC58
:10157000B5CF873041F481E080937C0180E090E03A
:10158000A0E2B2E4BDCF883009F096CF10927C0182
:1015900080916B0190916C01A0916D01B0916E01F1
:1015A000803D9740A105B10508F0F6CE80E090E0BF
:1015B000A0E2B2EC71CFDC011C96ED91FC9180E3CE
:1015C0006A3008F087E3860F09940F931F93CF9337
:1015D0008C01C62F70E084E0759567958A95E1F7D8
:1015E000C8010E94DB0A6C2F6F70C801CF911F9158
:1015F0000F910C94DB0ACF92DF92EF92FF92CF9380
:10160000DF93EC01862F69017A01EC85FD85099550
:101610006F2D772788279927CE010E94E50AB70109
:1016200088279927CE010E94E50A99278F2D7E2DC4
:101630006D2DCE010E94E50A6C2DCE01DF91CF9178
:10164000FF90EF90DF90CF900C94E50AFC010190A1
:101650000020E9F73197AF01481B590BBC018EE719
:1016600091E00C9452038F929F92AF92BF920F938E
:101670001F93CF93DF93CDB7DEB7A1970FB6F89442
:10168000DEBF0FBECDBF19A2423008F44AE08E0182
:101690000F5D1F4F842E912CB12CA12CA50194011C
:1016A0000E94F413E62FB901CA01EA30F4F4E05DB8
:1016B000D801EE938D01232B242B252B79F790E075
:1016C00080E0109719F0CD010E94260BA1960FB66D
:1016D000F894DEBF0FBECDBFDF91CF911F910F9168
:1016E000BF90AF909F908F900895E95CE1CF4F92AB
:1016F0005F926F927F928F929F92AF92BF92CF92A2
:10170000DF92EF92FF926B017C01AC019B010E9482
:10171000EF13882381F08CE191E0FF90EF90DF9050
:10172000CF90BF90AF909F908F907F906F905F9081
:101730004F900C94260B46015701E894B7F82FEF11
:101740003FEF4FE75FE7C501B4010E94EF1381113E
:101750000DC02FEF3FEF4FE75FE7C501B4010E94D7
:101760001E1218161CF480E291E0D7CF2FEF3FEF46
:101770004FE75FE4C701B6010E947D1318161CF401
:1017800084E291E0CACF2FEF3FEF4FE75FECC70154
:10179000B6010E941E1287FDF3CF20E030E0A901C0
:1017A000C701B6010E941E12B12CA12C87FF0AC0EE
:1017B0006DE28EE791E00E94F2035C01F7FAF0948B
:1017C000F7F8F0942AE037ED43EA5BE3C701B6018E
:1017D0000E94B2112B013C010E949C126B017C0102
:1017E0000E94CB129B01AC01C301B2010E94B11156
:1017F0002B013C014AE0C701B6010E94330B7C017A
:10180000EA0CFB1C6EE28EE791E00E94F203E80E08
:10181000F91E20E030E040E251E4C301B2010E9431
:1018200082132B013C010E949C124B01B12CA12C74
:101830004AE0C501B4010E94330BE80EF91EC50150
:10184000B4010E94CB129B01AC01C301B2010E9402
:10185000B11120E030E040E251E40E9482130E9486
:101860009C1290E080E04AE00E94330B8E0D9F1D99
:10187000FF90EF90DF90CF90BF90AF909F908F90B0
:101880007F906F905F904F900895CF92DF92EF928C
:10189000FF92823721F0843739F440936A01FF9038
:1018A000EF90DF90CF900895893629F5E7E2F2E0D6
:1018B00030E020E0DB01CA01022E04C0B695A795F6
:1018C000979587950A94D2F78F739927A4E0880F8C
:1018D000991FAA95E1F7819391932A5F3F4F2E318B
:1018E000310541F7442777FD43955527662777272C
:1018F00040936901D4CF873621F481E0809367015A
:10190000CECF833719F440937301C9CF803739F6AE
:10191000C9016A017B012FEFC21AD20AE20AF20A58
:10192000A701960160E70E94FB0A4AE0C701B601E1
:101930000E94330B88E291E0FF90EF90DF90CF9010
:101940000C94260B1F920F920FB60F9211242F9317
:101950003F934F935F936F937F938F939F93AF9337
:10196000BF93EF93FF938EE791E00E94D003FF9126
:10197000EF91BF91AF919F918F917F916F915F9107
:101980004F913F912F910F900FBE0F901F90189580
:101990001F920F920FB60F9211242F938F939F9344
:1019A000EF93FF93E0918E01F0918F018081E091A0
:1019B0009401F091950182FD1BC090818091970167
:1019C0008F5F8F7320919801821741F0E09197010A
:1019D000F0E0E258FE4F958F80939701FF91EF91D1
:1019E0009F918F912F910F900FBE0F901F90189580
:1019F0008081F4CF1F920F920FB60F9211242F9374
:101A00003F938F939F93AF93BF9380915F0190918A
:101A10006001A0916101B091620130915E0123E00B
:101A2000230F2D3758F50196A11DB11D20935E019E
:101A300080935F0190936001A0936101B093620174
:101A40008091630190916401A0916501B09166015C
:101A50000196A11DB11D8093630190936401A09331
:101A60006501B0936601BF91AF919F918F913F91B6
:101A70002F910F900FBE0F901F90189526E8230FFF
:101A80000296A11DB11DD2CFEEE7F1E013821282C2
:101A900088EE93E0A0E0B0E084839583A683B783CB
:101AA00084E091E09183808385EC90E09587848742
:101AB00084EC90E09787868780EC90E0918B808B18
:101AC00081EC90E0938B828B82EC90E0958B848B01
:101AD00086EC90E0978B868B118E128E138E148E6F
:101AE000EFE4F2E01386128615861486EFE3F2E047
:101AF00086E191E09183808387E0868788E087870D
:101B0000EBE1F2E084E690E0978B868B80E092E058
:101B1000918F808F83E0878F0895CF93DF93CDB728
:101B2000DEB729970FB6F894DEBF0FBECDBF78940D
:101B300084B5826084BD84B5816084BD85B58260D2
:101B400085BD85B5816085BD80916E008160809383
:101B50006E001092810080918100826080938100EC
:101B600080918100816080938100809180008160FC
:101B7000809380008091B10084608093B100809157
:101B8000B00081608093B00080917A00846080937F
:101B90007A0080917A00826080937A0080917A0046
:101BA000816080937A0080917A00806880937A00C7
:101BB0001092C10060E086E00E948D0460E085E044
:101BC0000E948D0460E089E00E948D0460E084E062
:101BD0000E948D0460E083E00E948D0460E08AE052
:101BE0000E948D0461E086E00E94BB0461E085E014
:101BF0000E94BB0461E089E00E94BB0461E084E0D4
:101C00000E94BB0461E083E00E94BB0461E08AE0C3
:101C10000E94BB0460E082E00E948D0461E082E0EB
:101C20000E94BB0480917A008C7F846080937A004C
:101C3000E0918E01F0918F0182E08083E0918A0132
:101C4000F0918B011082E0918C01F0918D0180E187
:101C5000808310929601E0919201F091930186E0C9
:101C60008083E0919001F091910180818061808377
:101C7000E0919001F0919101808188608083E091F2
:101C80009001F0919101808180688083E0919001C2
:101C9000F091910180818F7D808385E49CE0909319
:101CA0005A02809359028FE394E090935C028093F0
:101CB0005B028FEF80934F0281E080937D018091E2
:101CC0007D01882309F4C0C08EE791E00E94B00333
:101CD000892B61F08EE791E00E948E03182F0E94FD
:101CE000B702113209F09FC010927D018091670107
:101CF000882309F48BC080916B0190916C01A091B5
:101D00006D01B0916E018896A11DB11D80936B018C
:101D100090936C01A0936D01B0936E010E949B00A3
:101D20000E947F010E9467020E947309109267015E
:101D30002091730130E050E040E063E58FE492E0F1
:101D40000E94FB0A20E030E04AE754E4609174010D
:101D50007091750180917601909177010E948213B4
:101D60006B017C0120E030E0A9010E947D1320E09E
:101D700030E040E05FE387FD5DC0C701B6010E942F
:101D8000B2110E9495129B01AC0166E58FE492E0CE
:101D90000E94FB0A20E030E04AE754E460917801B9
:101DA0007091790180917A0190917B010E94821358
:101DB0006B017C0120E030E0A9010E947D1320E04E
:101DC00030E040E05FE387FD3AC0C701B6010E9402
:101DD000B2110E9495129B01AC0167E58FE492E07D
:101DE0000E94FB0A20917C0130E050E040E06DE46D
:101DF0008FE492E00E94FB0A2091370230E050E02D
:101E000040E068E58FE492E00E94FB0A80E090E009
:101E1000892B09F454CF0E94BC03882309F44FCFC7
:101E20000E9400004CCF133209F060CF81E0809314
:101E30007D015CCFC701B6010E94B111A2CFC701DD
:101E4000B6010E94B111C5CF8EE791E00E94B003A8
:101E5000892B61F08EE791E00E948E038B3209F0AE
:101E60009BC091E090937C010E94B7020E944905BB
:101E700000916F01109170012091710130917201F8
:101E80006B017C01C01AD10AE20AF30A97018601AC
:101E900000341C492105310508F4B8CF60936F0167
:101EA00070937001809371019093720180916B0126
:101EB00090916C01A0916D01B0916E018896A11D69
:101EC000B11D80936B0190936C01A0936D01B09351
:101ED0006E010E94490582E08F839E01295F3F4F7A
:101EE000AE014B5F5F4F62E58FE392E00E94EA082C
:101EF0008111D1C08FE392E00E946E05882309F41E
:101F0000CAC080E589831A829E012D5F3F4F42E05F
:101F1000BE016F5F7F4F8FE392E00E94F005811159
:101F200010C0A12CC12CF12CE12C10E000E030E01D
:101F300020E044E0BE016F5F7F4F8FE392E00E949C
:101F40003C0648E060E18FE392E00E945507309143
:101F500042024091430250914402609145028CE755
:101F600090E0FC0134962491253009F43CC1FC0139
:101F7000749137130FC03196E4914E130BC0FC01DE
:101F80003296E4915E1306C0FC013396E4916E171D
:101F900009F482C00596E5CF8D3219F410927C01C8
:101FA00063CF8832B9F4C12CD12C38E4E32E32E46B
:101FB000F32EC0927401D0927501E0927601F092F6
:101FC0007701109278011092790110927A011092A3
:101FD0007B014ACF8F32A9F41092740110927501DF
:101FE000109276011092770120E030E048E452E44C
:101FF000209378013093790140937A0150937B01CB
:1020000033CF8D33B9F41092740110927501109290
:10201000760110927701C12CD12C28E4E22E22EC1B
:10202000F22EC0927801D0927901E0927A01F0927A
:102030007B011ACF893269F420E030E048E452ECA9
:10204000209374013093750140937601509377018A
:10205000B8CF8F3349F41092740110927501109229
:10206000760110927701ADCF8C3519F4109273017F
:10207000FBCE8A3221F491E090937301F5CE813248
:1020800019F410927D01F0CE833209F0EDCE91E08B
:1020900090937D01E9CE20E020936A010E944905DA
:1020A0000E94490527E232E039872887F90184E058
:1020B000982F906490937C0090917A009064909314
:1020C0007A0090917A0096FDFCCF90917800209153
:1020D0007900322F292F4FEF53E0421B530B4193CE
:1020E0005193815028F70E944905F0906901F092C0
:1020F000680162E08BE00E94BB04E7EDF0E08491B0
:10210000E3ECF0E01491EFEAF0E00491002309F42D
:102110006CC081110E946404E02FF0E0EE0FFF1FFD
:10212000E656FF4FA591B4918C91182391E080E081
:1021300009F490E0092F182F61E08BE00E94BB04A6
:10214000C801F1E08F2780936901809173018111AB
:1021500007C0FF2029F0012B19F081E08093730163
:102160000E949B000E947F010E9467020E947309E7
:1021700060917C0182E00E948D04809074019090B7
:102180007501A0907601B090770140907801509051
:10219000790160907A0170907B01A3019201C501E1
:1021A000B4010E94B1110E9495126B011B01A301A1
:1021B0009201C501B4010E94B2110E9495124B0117
:1021C0008B0177FD15C061E086E00E948D0460E020
:1021D00085E00E948D04B4010F3F1105D1F0CCF0D1
:1021E0006FEF70E016C024E057CF10E000E0A4CFFE
:1021F00060E086E00E948D0461E085E00E948D042D
:10220000662777276819790921E082162FEF920651
:102210003CF389E00E94EC0437FC10C061E084E0EC
:102220000E948D0460E083E00E948D04B6016F3F40
:102230007105A9F0A4F06FEF70E011C060E084E0D8
:102240000E948D0461E083E00E948D046627772759
:102250006C197D0931E023163FEF330664F38AE001
:102260000E94EC04E885F985C190D190F987E88750
:102270000D2C000CEE08FF084AE0C701B601F7FE7E
:102280000DC06DE28EE791E00E94F203662777278A
:10229000CB016C197D098E099F094AE00E94330B1E
:1022A00089E391E00E94260B81E3C82E82E0D82EBC
:1022B000E884F984CE14DF04A9F68BE291E00E9451
:1022C000260B60911F027091200280912102909153
:1022D00022020E94770B83E391E00E94260B60911B
:1022E0001B0270911C0280911D0290911E020E949F
:1022F000770B8BE391E00E94260B6091690170E0FF
:1023000090E080E04AE00E94330B84E491E00E9478
:10231000260B60916A0170E090E080E04AE00E9444
:10232000330B8DE491E00E94260B6091730170E005
:1023300090E080E04AE00E94330B86E591E00E9445
:10234000260B60916B0170916C0180916D019091F1
:102350006E014AE00E94330B88E291E00E94260B56
:1023600055CD5058BB27AA270E94C9110C9443137E
:102370000E94351338F00E943C1320F039F49F3F3F
:1023800019F426F40C9432130EF4E095E7FB0C9448
:102390002C13E92F0E94541358F3BA1762077307DE
:1023A0008407950720F079F4A6F50C9476130EF4C3
:1023B000E0950B2EBA2FA02D0B01B90190010C0155
:1023C000CA01A0011124FF27591B99F0593F50F46D
:1023D000503E68F11A16F040A22F232F342F4427C5
:1023E000585FF3CF469537952795A795F0405395BD
:1023F000C9F77EF41F16BA0B620B730B840BBAF08D
:102400009150A1F0FF0FBB1F661F771F881FC2F7F7
:102410000EC0BA0F621F731F841F48F4879577950B
:102420006795B795F7959E3F08F0B0CF9395880FC5
:1024300008F09927EE0F9795879508950E94081345
:1024400008F481E008950E9437120C9443130E940F
:102450003C1358F00E94351340F029F45F3F29F0F7
:102460000C942C1351110C9477130C9432130E947A
:10247000541368F39923B1F3552391F3951B550B2E
:10248000BB27AA2762177307840738F09F5F5F4F47
:10249000220F331F441FAA1FA9F335D00E2E3AF086
:1024A000E0E832D091505040E695001CCAF72BD09E
:1024B000FE2F29D0660F771F881FBB1F26173707EF
:1024C0004807AB07B0E809F0BB0B802DBF01FF2721
:1024D00093585F4F3AF09E3F510578F00C942C13BF
:1024E0000C9477135F3FE4F3983ED4F38695779589
:1024F0006795B795F7959F5FC9F7880F911D9695DA
:10250000879597F90895E1E0660F771F881FBB1F35
:10251000621773078407BA0720F0621B730B840BE2
:10252000BA0BEE1F88F7E09508950E949C126894FC
:10253000B1110C94771308950E945C1388F09F5793
:1025400098F0B92F9927B751B0F0E1F0660F771FD7
:10255000881F991F1AF0BA95C9F714C0B13091F0CD
:102560000E947613B1E008950C947613672F782FAC
:102570008827B85F39F0B93FCCF386957795679592
:10258000B395D9F73EF490958095709561957F4FFE
:102590008F4F9F4F0895E89409C097FB3EF49095A4
:1025A0008095709561957F4F8F4F9F4F9923A9F02C
:1025B000F92F96E9BB279395F695879577956795BB
:1025C000B795F111F8CFFAF4BB0F11F460FF1BC0FF
:1025D0006F5F7F4F8F4F9F4F16C0882311F096E992
:1025E00011C0772321F09EE8872F762F05C0662340
:1025F00071F096E8862F70E060E02AF09A95660FF9
:10260000771F881FDAF7880F9695879597F90895B1
:10261000990F0008550FAA0BE0E8FEEF16161706F3
:10262000E807F907C0F012161306E407F50798F05B
:10263000621B730B840B950B39F40A2661F0232B74
:10264000242B252B21F408950A2609F4A140A695F0
:102650008FEF811D811D089597F99F6780E870E0D5
:1026600060E008959FEF80EC089500240A94161608
:10267000170618060906089500240A941216130670
:10268000140605060895092E0394000C11F48823FE
:1026900052F0BB0F40F4BF2B11F460FF04C06F5F1A
:1026A0007F4F8F4F9F4F089557FD9058440F551FF0
:1026B00059F05F3F71F04795880F97FB991F61F0C4
:1026C0009F3F79F087950895121613061406551F3B
:1026D000F2CF4695F1DF08C0161617061806991FA7
:1026E000F1CF86957105610508940895E894BB279C
:1026F00066277727CB0197F908950E94081308F4FD
:102700008FEF08950E9495130C9443130E94351384
:1027100038F00E943C1320F0952311F00C942C13F8
:102720000C94321311240C9477130E94541370F3F9
:10273000959FC1F3950F50E0551F629FF001729F66
:10274000BB27F00DB11D639FAA27F00DB11DAA1F75
:10275000649F6627B00DA11D661F829F2227B00DC2
:10276000A11D621F739FB00DA11D621F839FA00D4D
:10277000611D221F749F3327A00D611D231F849F9D
:10278000600D211D822F762F6A2F11249F575040F4
:102790009AF0F1F088234AF0EE0FFF1FBB1F661F6F
:1027A000771F881F91505040A9F79E3F510580F038
:1027B0000C942C130C9477135F3FE4F3983ED4F3FE
:1027C000869577956795B795F795E7959F5FC1F7DC
:1027D000FE2B880F911D9695879597F908950E9475
:1027E0000813880B990B0895A1E21A2EAA1BBB1B94
:1027F000FD010DC0AA1FBB1FEE1FFF1FA217B307CD
:10280000E407F50720F0A21BB30BE40BF50B661FE2
:10281000771F881F991F1A9469F7609570958095A6
:1028200090959B01AC01BD01CF010895EE0FFF1FF4
:102830000590F491E02D0994F894FFCF000000007A
:10284000F20352037F034404B0038E03A20300008B
:102850000000690737096E056E616E00696E6600DB
:102860006F7666000D0A0020506F73523A200020E8
:10287000506F734C3A200020546F7563683A200003
:1028800020436F6C6F723A20002073746174653A54
:0A2890002000207469733A20000054
:107E0000112484B714BE81FFF0D085E080938100F7
:107E100082E08093C00088E18093C10086E0809377
:107E2000C20080E18093C4008EE0C9D0259A86E02C
:107E300020E33CEF91E0309385002093840096BBD3
:107E4000B09BFECF1D9AA8958150A9F7CC24DD24C4
:107E500088248394B5E0AB2EA1E19A2EF3E0BF2EE7
:107E6000A2D0813461F49FD0082FAFD0023811F036
:107E7000013811F484E001C083E08DD089C08234E0
:107E800011F484E103C0853419F485E0A6D080C0E4
:107E9000853579F488D0E82EFF2485D0082F10E0AE
:107EA000102F00270E291F29000F111F8ED06801E7
:107EB0006FC0863521F484E090D080E0DECF843638
:107EC00009F040C070D06FD0082F6DD080E0C81688
:107ED00080E7D80618F4F601B7BEE895C0E0D1E017
:107EE00062D089930C17E1F7F0E0CF16F0E7DF06D8
:107EF00018F0F601B7BEE89568D007B600FCFDCFD4
:107F0000A601A0E0B1E02C9130E011968C91119780
:107F100090E0982F8827822B932B1296FA010C0160
:107F200087BEE89511244E5F5F4FF1E0A038BF0790
:107F300051F7F601A7BEE89507B600FCFDCF97BE46
:107F4000E89526C08437B1F42ED02DD0F82E2BD052
:107F50003CD0F601EF2C8F010F5F1F4F84911BD097
:107F6000EA94F801C1F70894C11CD11CFA94CF0C13
:107F7000D11C0EC0853739F428D08EE10CD085E9AC
:107F80000AD08FE07ACF813511F488E018D01DD067
:107F900080E101D065CF982F8091C00085FFFCCF94
:107FA0009093C60008958091C00087FFFCCF809118
:107FB000C00084FD01C0A8958091C6000895E0E648
:107FC000F0E098E1908380830895EDDF803219F02E
:107FD00088E0F5DFFFCF84E1DECF1F93182FE3DFCA
:107FE0001150E9F7F2DF1F91089580E0E8DFEE27F6
:047FF000FF270994CA
:027FFE00040479
:00000001FF
